:0600000000308A00122806
:10000800FF00030883120313AF000408B0000A08B6
:10001800B1007E08B2000A128A150E2E4030840004
:100028000230FE002230FF0023208000840A0408EA
:10003800413A03192728FF0A0319FE0A18287E08DF
:100048008A007F088200413084005D300A128A11DC
:1000580044200A128A11E4308400F0300A128A110E
:1000680044200A128A1183177A3084007E300A12DB
:100078008A1144200A128A1183010A128A114C2813
:1000880064008001840A0406031900340406452824
:100098000A128A116E260A128A11831203130B168A
:1000A8008B175D30A30001300A128A15AC250A129D
:1000B8008A11643083120313A30002300A128A15CE
:1000C800AC250A128A11043083120313B30061307D
:1000D8000A128A1548240A128A110230831203135D
:1000E800B30065300A128A1548240A128A110310CF
:1000F80083120313003003180130B30064300A126E
:100108008A1548240A128A1101300A128A113127E5
:100118000A128A11831203132408FB01FB07230820
:10012800FA01FA076430A3000030A4000A128A1505
:1001380008240A128A1103108312031300300318CB
:100148000130B30064300A128A159D240A128A11FC
:100158004E307B02203003197A020318B428B528E0
:10016800BC28003083120313C3000030C400C22827
:10017800013083120313C3000030C400031083123C
:100188000313003003180130B30064300A128A15D3
:1001980048240A128A1101300A128A1131270A12D8
:1001A8008A11831203132408FB01FB072308FA01B1
:1001B800FA076430A3000030A4000A128A15082444
:1001C8000A128A1103108312031300300318013036
:1001D800B30064300A128A159D240A128A114E301F
:1001E8007B02203003197A020318FB28FC28032914
:1001F800003083120313C1000030C2000929013006
:1002080083120313C1000030C20044084206031DD4
:100218000F2943084106031D1229132919290A1217
:100228008A1123220A128A111E290A128A116124AC
:100238000A128A110A128A1576230A128A11F030D4
:1002480083120313A3000A30A4000A128A15082493
:100258000A128A110A128A151C230A128A11C22844
:100268000A128A11122883120313B5000030B9004C
:100278000030BA000030B7000030B800031000307A
:1002880003180130B60006303502031C4C294D29ED
:100298005329F915FF30B300FF30B400B3293508EE
:1002A800053A031D582959295B290430B5000B125A
:1002B8003508AB002B08F0000308F300831603137E
:1002C800C2309F000310F00DF00DF00D41307004A6
:1002D80083129F00FF30FF3E000000000000000076
:1002E800031D6F291F151F197729730883008316AB
:1002F8000313831203131E08AB00AC010830AD00D2
:100308000310AB0DAC0DAD0B8429831603131E0827
:10031800831203132B07B7000030031801302C0792
:10032800B800B6010314B60D992937083907B90082
:1003380038080318380A3A07BA000130AB002B080E
:10034800B60732303602031CAA29AB2999290B16A5
:100358003A08B401B4073908B301B307B329080050
:10036800EC29013034020030031933020318BD2987
:10037800BE29C1293308B500C329B501B50335081D
:100388003302B3003408031C3403B400E729781C93
:10039800E1298B1A0B1DE1290308F30083120313CB
:1003A8005F1CDB29DD0FD929DE0ADF01DC295F1498
:1003B8003D3081000B1173088300F830FF3E031DA8
:1003C800E2290130B502B508031DEB29EC29CB2938
:1003D80034083304031DF129F229B529F32908004B
:10040000FE00FE1F082A83137E18831700080800C9
:100410000408FE0002308A007E0882070034763429
:100420003134313446342D34303431342034543482
:1004300069346D34653472342D3462346534743407
:10044000613400340134003083160313E4000030BB
:10045000E50003300A128A1131270A128A11831229
:1004600003132408FD01FD072308FC01FC070530E8
:100470000A128A1131270A128A11831203132408DF
:10048000DA01DA072308D901D90700300A128A11E4
:1004900031270A128A1183160313831203132408C7
:1004A00083160313E701E707831203132308831658
:1004B0000313E601E6078312031383160313670889
:1004C00083120313DC01DC0783160313660883120F
:1004D0000313DB01DB07C92A83160313003065020F
:1004E000183003196402031C762A772A7D2A0A121F
:1004F0008A1576230A128A11D32A831203138316CC
:100500000313670883120313DC01DC07831603134C
:10051000660883120313DB01DB075A087D02031D03
:10052000932A59087C020318962A972A9D2A0A12B0
:100530008A15EF220A128A11A22A0A128A15492361
:100540000A128A115A3083120313A3000030A40048
:100550000A128A1508240A128A1100300A128A1116
:1005600031270A128A1183160313831203132408F6
:1005700083160313E701E707831203132308831687
:100580000313E601E6070130E4070318E50A00302B
:10059000E507831227305C02113003195B02031850
:1005A000D22AD32A6C2A0A128A151C230A128A110B
:1005B000F43083120313A3000130A4000A128A1539
:1005C00008240A128A11323083120313A300013067
:1005D0000A128A15AC250A128A11463083120313B7
:1005E000A30002300A128A15AC250A128A110030C3
:1005F00083120313D3000030D4000030D500003044
:10060000D6002C2B00300A128A1131270A128A11C7
:10061000831203135308A0002007E63E83138400CF
:1006200023088000840A240880005308A0002007C3
:10063000E63E84000008A100013084070008A20003
:100640002108D5070318D60A2208D6070130D30798
:100650000318D40A0030D4070030540205300319BF
:100660005302031C342B352B022B0530A500003020
:10067000A6005608A401A4075508A301A3070A125F
:100680008A11AE270A128A11831203132408C601A5
:10069000C6072308C501C507831603138312031376
:1006A000460883160313E701E7078312031345087F
:1006B00083160313E601E60783120313831603135D
:1006C000670883120313DC01DC0783160313660833
:1006D00083120313DB01DB0703300A128A1131276F
:1006E0000A128A11831203132408FD01FD0723084F
:1006F000FC01FC0705300A128A1131270A128A11FF
:10070000831203132408DA01DA072308D901D90771
:10071000202C831603138312031383160313670815
:1007200083120313DC01DC078316031366088312AC
:100730000313DB01DB075A087D02031DA12B5908B7
:100740007C020318A42BA52BAB2B0A128A15EF22CF
:100750000A128A11B02B0A128A1549230A128A1129
:100760005A3083120313A3000030A4000A128A1522
:1007700008240A128A11003083120313D3000030B8
:10078000D4000030D5000030D600F02B00300A1223
:100790008A1131270A128A11831203135308A00009
:1007A0002007E63E8313840023088000840A24087F
:1007B00080005308A0002007E63E84000008A10046
:1007C000013084070008A2002108D5070318D60AC3
:1007D0002208D6070130D3070318D40A0030D40703
:1007E00000305402053003195302031CF82BF92B77
:1007F000C62B0530A5000030A6005608A401A407AA
:100800005508A301A3070A128A11AE270A128A11FA
:10081000831203132408C601C6072308C501C507B0
:100820008316031383120313460883160313E70189
:10083000E70783120313450883160313E601E6074F
:10084000831603138312031383160313670883129B
:1008500003135C02031D322C8316031366088312F4
:1008600003135B020318352C362C892B0A128A15C8
:100870001C230A128A11F43083120313A3000130DF
:10088000A4000A128A1508240A128A115D30831204
:100890000313A30001300A128A15AC250A128A112B
:1008A000643083120313A30002300A128A15AC25A8
:1008B0000A128A110A128A1576230A128A11602CEA
:1008C00008000030D1000030D20003300A128A1133
:1008D00031270A128A11831203132408FD01FD0730
:1008E0002308FC01FC0705300A128A1131270A127D
:1008F0008A11831203132408DA01DA072308D901C5
:10090000D90700300A128A1131270A128A11831678
:10091000031383120313240883160313E701E70765
:1009200083120313230883160313E601E60702303C
:100930000A128A1131270A128A118312031324081A
:10094000C801C8072308C701C7074808DC01DC073E
:100950004708DB01DB070C2D8312003052021830F0
:1009600003195102031CB52CB62CBC2C0A128A1593
:1009700076230A128A11212D4808DC01DC0747087A
:10098000DB01DB075A087D02031DC82C59087C02D5
:100990000318CB2CCC2CD22C0A128A15EF220A1267
:1009A0008A11D72C0A128A1549230A128A115A3041
:1009B00083120313A3000030A4000A128A1508242E
:1009C0000A128A1102300A128A1131270A128A1178
:1009D000831203132408C801C8072308C701C707E7
:1009E0000130D1070318D20A0030D20700300A12B2
:1009F0008A1131270A128A118316031383120313F3
:100A0000240883160313E701E7078312031323085F
:100A100083160313E601E60783122E305C02E130F1
:100A200003195B020318152D162DAC2C8316031326
:100A30002E306702E03003196602031C202D212DA1
:100A4000AC2C0A128A151C230A128A113230831226
:100A50000313A30001300A128A15AC250A128A1169
:100A6000463083120313A30002300A128A15AC2504
:100A70000A128A11003083120313D3000030D4000D
:100A80000030D5000030D6006F2D02300A128A11D6
:100A900031270A128A11831203135308A00020077A
:100AA000473E8313840023088000840A24088000C2
:100AB0005308A0002007473E84000008A100013031
:100AC00084070008A2002108D5070318D60A2208C7
:100AD000D6070130D3070318D40A0030D4070030FA
:100AE0005402053003195302031C772D782D452D30
:100AF0000530A5000030A6005608A401A40755083B
:100B0000A301A3070A128A11AE270A128A118312BF
:100B100003132408C601C6072308C501C5074608F4
:100B2000C801C8074508C701C7074808DC01DC073A
:100B30004708DB01DB0703300A128A1131270A124A
:100B40008A11831203132408FD01FD072308FC0109
:100B5000FC0705300A128A1131270A128A11831202
:100B600003132408DA01DA072308D901D907392E3B
:100B70004808DC01DC074708DB01DB075A087D0277
:100B8000031DC42D59087C020318C72DC82DCE2D76
:100B90000A128A15EF220A128A11D32D0A128A1517
:100BA00049230A128A115A3083120313A30000301A
:100BB000A4000A128A1508240A128A11003083122E
:100BC0000313D3000030D4000030D5000030D6002D
:100BD000132E02300A128A1131270A128A11831247
:100BE00003135308A0002007473E83138400230803
:100BF0008000840A240880005308A0002007473E94
:100C000084000008A100013084070008A200210828
:100C1000D5070318D60A2208D6070130D3070318D0
:100C2000D40A0030D40700305402053003195302AF
:100C3000031C1B2E1C2EE92D0530A5000030A6003C
:100C40005608A401A4075508A301A3070A128A1194
:100C5000AE270A128A11831203132408C601C6079D
:100C60002308C501C5074608C801C8074508C701CC
:100C7000C70748085C02031D3F2E47085B020318A4
:100C8000422E432EB82D0A128A151C230A128A11ED
:100C9000643083120313A3000030A4000A128A15E3
:100CA00008240A128A115D3083120313A300013055
:100CB0000A128A15AC250A128A11643083120313B2
:100CC000A30002300A128A15AC250A128A110A12F0
:100CD0008A1576230A128A116D2E0800C2308316F7
:100CE00003139F004130831203139F0010308500CF
:100CF0002F30831603138500031083120313003073
:100D000003180130860083160313FF30860003109A
:100D1000831203130030031801308700C03083169C
:100D200003138700031083120313003003180130EC
:100D3000880083160313FF308800043083120313E6
:100D40008900033083160313890087308100031064
:100D50008312031300300318013081000C30831616
:100D600003139900243098009030831203139800E5
:100D70000310003003180130B30063300A128A15E3
:100D80009D240A128A11043083120313B3006130C8
:100D90000A128A1548240A128A11031083120313B7
:100DA000003003180130B30065300A128A15F224AE
:100DB0000A128A1183120313A0002008F0000030E9
:100DC0000A128A1131270A128A1183120313240886
:100DD000F701F7072308F601F6070030A1000030FD
:100DE000A2000A128A154E250A128A116430831253
:100DF0000313A30001300A128A15AC250A128A11C6
:100E0000643083120313A30002300A128A15AC2542
:100E10000A128A11FA3083120313A3000030A400CF
:100E20000A128A1508240A128A110A128A15A323A3
:100E30000A128A110310003003180130F900031060
:100E400083120313003003180130DF000030DD008F
:100E50000030DE000310003003180130F800302F9E
:100E6000080083120313A5000030A9000030AA0077
:100E70000030A7000030A800031000300318013034
:100E8000A60006302502031C462F472F4D2FF915CB
:100E9000FF30A300FF30A400AD2F2508053A031D45
:100EA000522F532F552F0430A5000B122508AB00ED
:100EB0002B08F0000308F30083160313C2309F00D1
:100EC0000310F00DF00DF00D4130700483129F00FF
:100ED000FF30FF3E0000000000000000031D692FEE
:100EE0001F151F19712F73088300831603138312B4
:100EF00003131E08AB00AC010830AD000310AB0DAE
:100F0000AC0DAD0B7E2F831603131E088312031343
:100F10002B07A7000030031801302C07A800A601FA
:100F20000314A60D932F27082907A90028080318E2
:100F3000280A2A07AA000130AB002B08A607323086
:100F40002602031CA42FA52F932F0B162A08A401F9
:100F5000A4072908A301A307AD2F08000030A800AB
:100F60000030A900260825040319B72FB82FF32F46
:100F7000A7010314A70DC72F01300310A50DA60D5F
:100F8000FF3E031DBD2F0130AA002A08A707A61F98
:100F9000CA2FCB2FBC2F01300310A80DA90DFF3E87
:100FA000031DCC2F26082402031DD82F2508230259
:100FB000031CDB2FDC2FE62F2508A3022608031CC9
:100FC000A403A4020130A8040030A90401300310D6
:100FD000A60CA50CFF3E031DE72F0130A702031D41
:100FE000F22FF32FCB2F2908A401A4072808A3016F
:060FF000A307FA2F080020
:1013B000A3000B12DC29DC2983160313981CE129F6
:1013C000E229DB2983120313230899000B16E8296D
:1013D0000800831203136008F0006108F10062083E
:1013E000F2006308F3006408A3006508A40066081F
:1013F000A5006708A5006808B4006908B3006A087A
:10140000B4006B08B3006C08B4006D08B3006E083C
:10141000A4006F08A300F8010D2A0800053083120C
:101420000313B30043300A128A159D240A128A1549
:10143000033083120313B30043300A128A159D242C
:101440000A128A15043083120313B30043300A12C0
:101450008A1548240A128A150310831203130030D8
:1014600003180130B30043300A128A1548240A12C7
:101470008A153A2A0800053083120313B30043305B
:101480000A128A159D240A128A1504308312031346
:10149000B30043300A128A159D240A128A150330BC
:1014A00083120313B30043300A128A1548240A1228
:1014B0008A15031083120313003003180130B300A0
:1014C00043300A128A1548240A128A15672A08002E
:1014D000031083120313003003180130B3004330AC
:1014E0000A128A159D240A128A15053083120313E5
:1014F000B30043300A128A1548240A128A150430B0
:1015000083120313B30043300A128A159D240A1272
:101510008A15033083120313B30043300A128A156D
:1015200048240A128A15942A080003108312031310
:10153000003003180130B30043300A128A159D248D
:101540000A128A15053083120313B30043300A12BE
:101550008A159D240A128A15033083120313B300DF
:1015600043300A128A159D240A128A150430831208
:101570000313B30043300A128A159D240A128A15F8
:10158000C12A08000310831203130030031801302E
:10159000B30043300A128A159D240A128A150330BB
:1015A00083120313B30043300A128A159D240A12D2
:1015B0008A15043083120313B30043300A128A15CC
:1015C00048240A128A15053083120313B3004330EE
:1015D0000A128A1548240A128A15EE2A08000530D4
:1015E00083120313B30043300A128A159D240A1292
:1015F0008A15043083120313B30043300A128A158C
:101600009D240A128A15033083120313B30043305A
:101610000A128A1548240A128A150310831203132A
:10162000003003180130B30043300A128A154824F1
:101630000A128A151B2B08000310831203130030B3
:1016400003180130B30043300A128A159D240A1290
:101650008A15053083120313B30043300A128A152A
:101660009D240A128A15033083120313B3004330FA
:101670000A128A159D240A128A1504308312031354
:10168000B30043300A128A159D240A128A15482B8A
:101690000800031083120313003003180130B30055
:1016A00043300A128A159D240A128A1503308312C8
:1016B0000313B30043300A128A159D240A128A15B7
:1016C000043083120313B30043300A128A154824EE
:1016D0000A128A15053083120313B30043300A122D
:1016E0008A1548240A128A15752B080005308312C2
:1016F0000313B30043300A128A159D240A128A1577
:10170000033083120313B30043300A128A159D2459
:101710000A128A15043083120313B30043300A12ED
:101720008A1548240A128A15031083120313003005
:1017300003180130B30043300A128A1548240A12F4
:101740008A15A22B0800031083120313003003181C
:101750000130A100BD2B400821070A128A1109227D
:101760000A128A150A128A15D8210A128A1501301E
:1017700083120313A2002208A107400821070A12BE
:101780008A1109220A128A150038031DC82BC92B99
:10179000AB2B0D300A128A15D8210A128A15D02BCC
:1017A0000800831203138B1A0B1DE32B5F1CDD2B28
:1017B000DD0FDB2BDE0ADF01DE2B5F143D30810005
:1017C0000B118B1C003478147008E0007108E100E4
:1017D0007208E2007308E3002308E4002408E5002F
:1017E0002508E6002508E7003408E8003308E9008A
:1017F0003408EA003308EB003408EC003308ED004D
:101800002408EE002308EF0001340030072C080004
:10181000402C013024020030031923020318112C3C
:10182000122C152C2308A500172CA501A5032508AB
:101830002302A3002408031C2403A4003B2C781CCF
:10184000352C8B1A0B1D352C0308F3008312031360
:101850005F1C2F2CDD0F2D2CDE0ADF01302C5F14D6
:101860003D3081000B1173088300F830FF3E031DEB
:10187000362C0130A502A508031D3F2C402C1F2C3F
:1018800024082304031D452C462C092C472C080052
:10189000B4000B123408B5003508F0003308B50069
:1018A0003508F100F2010314F20D0B167008D83957
:1018B000403A031D642C700807390319642CF000AA
:1018C00006307002031C662C791408007108031995
:1018D000722CF839031D642C71080310F20DFF3EC1
:1018E000031D6D2C7008F1007208F10B782C103973
:1018F000F10B7B2CFF39F10B7E2C3939F10B812C4C
:10190000FF39F10B842C0439FF39031D892C79141C
:1019100008000B120308F3007008043E84008313D0
:10192000000872048000F209841700087205800024
:10193000730883000B169C2C0800B4000B123408AB
:10194000B5003508F0003308B5003508F100F201A4
:101950000314F20D0B167008D839403A031DB92C48
:10196000700807390319B92CF00006307002031C07
:10197000BB2CF914080071080319C72CF839031D92
:10198000B92C71080310F20DFF3E031DC22C700824
:10199000F1007208F10BCD2C1039F10BD02CFF396E
:1019A000F10BD32C3939F10BD62CFF39F10BD92C93
:1019B0000439FF39031DDE2CF91408000B1203084B
:1019C000F300F2097008043E8400831300087205D6
:1019D00080008417000872058000730883000B16CE
:1019E000F12C0800B4000B123408B5003508F000E3
:1019F0003308B5003508F100F2010314F20D0B169F
:101A00007008D839403A031D0E2D700807390319A4
:101A10000E2DF00006307002031C102D7915FF34D6
:101A2000710803191C2DF839031D0E2D71080310C0
:101A3000F20DFF3E031D172D7008F1007208F10B27
:101A4000222D0039F10B252DFF39F10B282D0039FE
:101A5000F10B2B2DFF39F10B2E2D0339FF39031D0F
:101A6000332D7915FF340B120308F3007008043E80
:101A70008400831384170008720480003230FF3E14
:101A8000031D3F2D8413F1010008F205031D71149D
:101A9000730883000B1671084D2D08000B122208E5
:101AA000F501F5072108F401F4070308F300F2013A
:101AB000F00170141030F6002730F700F01C642D90
:101AC000E830F6000330F700701D6A2D6430F60030
:101AD0000030F700F01D702D0A30F6000030F700DE
:101AE000701E762D0130F6000030F700F101F10A8A
:101AF00076087402F4007708031C770A7502F50073
:101B00000318772D7608F40777080318013EF507C8
:101B1000831398308400801C8B2D19308400710849
:101B20002F3E0310F00DF01A9C2D72189C2DF10021
:101B30000F3903199E2D710880007214F01E5E2D5E
:101B4000203083160313981CA32D83129900730869
:101B500083000B16AB2D0800A4001E302302031CCB
:101B6000B22DB32DB92D65302302031CB82DB92D2C
:101B7000BB2D79160D2E0B126730831603139200BE
:101B8000831203132408013A031DC72DC82DE62D27
:101B900023085706031DCD2DCE2DD02D0B160D2E4F
:101BA0002308A5002508D7000310003003180130D2
:101BB00097002308053E95008316031307110C3088
:101BC000831203139700063092000B2E2408023A6A
:101BD000031DEB2DEC2D0A2E23085806031DF12DB5
:101BE000F22DF42D0B160D2E2308A5002508D80084
:101BF00003100030031801309D002308053E9B00B0
:101C00008316031387100C30831203139D000630D4
:101C100092000B2E79160B160D2E08000A128A154B
:101C2000D1230A128A150038031D172E182E192EDB
:101C3000F32F053083120313B3000030B4000A12EF
:101C40008A11B4210A128A1583120313061C292E45
:101C50002A2E312E8B100A128A15E9210A128A15B2
:101C6000F32F0310003003180130B30063300A1261
:101C70008A159D240A128A15053083120313B300B6
:101C800063300A128A159D240A128A1503308312C2
:101C90000313B30063300A128A159D240A128A15B1
:101CA000043083120313B30063300A128A159D2493
:101CB0000A128A15323083120313B3000030B400C5
:101CC0000A128A11B4210A128A150310831203130F
:101CD000003003180130B30045300A128A15F2248F
:101CE0000A128A150038031D762E772ECB2E83120A
:101CF0000313B3010314B30D45300A128A15F224FD
:101D00000A128A15003A0319862E872ECB2E02302E
:101D100083120313B30045300A128A1548240A12AD
:101D20008A15043083120313B30041300A128A1556
:101D30009D240A128A150A128A1568220A128A1527
:101D4000A93083120313B3000130B4000A128A11C0
:101D5000B4210A128A150A128A1595220A128A15C6
:101D60000A128A153B220A128A157D308312031348
:101D7000B3000030B4000A128A11B4210A128A1585
:101D80000A128A1595220A128A150A128A150E223B
:101D90000A128A15D42F83120313B3010314B30D4F
:101DA00045300A128A15F2240A128A150038031DDA
:101DB000DA2EDB2E312F03108312031300300318A9
:101DC0000130B30045300A128A15F2240A128A152E
:101DD000003A0319EC2EED2E312F04308312031339
:101DE000B30041300A128A1548240A128A150230BB
:101DF00083120313B30045300A128A159D240A1278
:101E00008A150A128A1568220A128A15A9308312C5
:101E10000313B3000130B4000A128A11B4210A126C
:101E20008A150A128A1595220A128A150A128A152B
:101E3000C2220A128A157D3083120313B3000030C8
:101E4000B4000A128A11B4210A128A150A128A15DC
:101E500095220A128A150A128A150E220A128A156A
:101E6000D42F83120313B3010314B30D45300A12A8
:101E70008A15F2240A128A150038031D402F412FBB
:101E8000D42F031083120313003003180130B30062
:101E900045300A128A15F2240A128A150038031DE9
:101EA000522F532FD42F043083120313B300413029
:101EB0000A128A159D240A128A150230831203130E
:101EC000B30045300A128A159D240A128A15033080
:101ED0000A128A1137210A128A1583120313340851
:101EE000FD01FD073308FC01FC0705300A128A11C9
:101EF00037210A128A15831203133408DA01DA072C
:101F00003308D901D9070A128A1568220A128A15DC
:101F1000A93083120313B3000130B4000A128A11EE
:101F2000B4210A128A150A128A1595220A128A15F4
:101F3000831203135A087D02031DA02F59087C0247
:101F40000318A32FA42FBA2F0A128A153B220A12B4
:101F50008A157D3083120313B3000030B4000A12D7
:101F60008A11B4210A128A150A128A1595220A12B8
:101F70008A15CF2F0A128A15C2220A128A157D30BD
:101F800083120313B3000030B4000A128A11B42183
:101F90000A128A150A128A1595220A128A150A123D
:101FA0008A150E220A128A1583120313061CD92FD2
:101FB000DA2FED2F8B100430B30041300A128A154E
:101FC00048240A128A15023083120313B3004530E5
:101FD0000A128A1548240A128A150A128A15E9215A
:101FE0000A128A15F32F831203133208FE003108F8
:101FF0008A00300884002F088300FF0E7F0E09003E
:00000001FF
